:1000260000000000000000000000000000000000CA
:1000360000000000000000000000000000000000BA
:1000460000000000000000000000000000000000AA
:10005600000000000000000000000000000000009A
:10006600000000000000000000000000000000008A
:10007600000000000000000000000000000000007A
:10008600000000000000000000000000000000006A
:10009600000000000000000000000000000000005A
:1000A6000000FC1F84108410FC1F84108410FC1FA9
:1000B60080008000FE3F4020202010200C14030802
:1000C60080008000800080008000800040014001A8
:1000D6002002200210041004080804100220014027
:1000E6000802080204027E3E42214221C220422228
:1000F6007E2442244220422042207E2042140008D0
:10010600400080008000FF7F40004000A000A0105B
:10011600100918051402120411085010306010005E
:100126000800887F88008800BF00883F8C209C20BC
:10013600AA20AA20893F880088008800887F0800B6
:1001460000000000000000000000000000000000A9
:100156000000000000000C000C0008000400000075
:1001660080008400883F4800A11F821092129014DC
:10017600E87F881047124414C43F0410040A0004A0
:100186004000843EA8202822A12F2222A22FA82A9E
:10019600A82EA42BA72AA42F2427A42A242220325F
:1001A6004000800080000000FE1F000800040002DE
:1001B600000180004000200018002400C27F0000DB
:1001C60040008000FE7F02400120FE3F4000B0104C
:1001D6008E09400530038E056019186147018000BD
:1001E6000000000000000000000000000000000009
:1001F60000000000000000000000000000000000F9
:1002060000000000000000000000000000000000E8
:1002160000000000000000000000000000000000D8
:1002260000000000000000000000000000000000C8
:1002360000000000000000000000000000000000B8
:1002460000000000000000000000000000000000A8
:100256000000000000000000000000000000000098
:100266000000000000000000000000000000000088
:100276000000000000000000000000000000000078
:100286000000000000000000000000000000000068
:100296000000000000000000000000000000000058
:1002A6000000000000000000000000000000000048
:1002B6000000000000000000000000000000000038
:1002C6000000000000000000000000000000000028
:1002D6000000000000000000000000000000000018
:1002E6000010FF1110101010087FFE10AA10AA109F
:1002F600AA12AA14AA14AA10AA10AA108214C20832
:1003060080008000FF7F80008000FC1F0410041026
:100316000410FC1F20022002100208420442037C43
:1003260000000000000000000000000000000000C7
:100336000000000000000C000C0008000400000093
:100346000000000000007C001000100010001000EB
:1003560010001000100010001000100011000F0017
:100366000000000000000000000000000000630024
:1003760042004200420042006200DC000000000031
:1003860000000000000000000000000000007C00EB
:10039600420002003C00400042003E000000000017
:1003A60000000000000000000000080008003E00F9
:1003B600080008000800080048003000000000009F
:1003C6000000000000000000000000000000000027
:1003D6000000000000000000000000000000000017
:1003E6000000000000001F00220042004200420000
:1003F600420042004200420022001F0000000000AE
:1004060000000000000000000000000000003C00AA
:10041600420042004200420042003C000000000050
:1004260000000000000000000000000000000000C6
:1004360000000000000000000000000000000000B6
:100446000000000000003E00080008000800080048
:10045600080008000800080008003E000000000030
:1004660000000000000000000000080008003E0038
:1004760008000800080008004800300000000000DE
:100486000000000000000000000000000000000066
:100496000000000000000000000000000000000056
:1004A6000000000000000000000000000000000046
:1004B6000000000000000000000000000000000036
:1004C6000000000000000000000000000000000026
:1004D6000000000000000000000000000000000016
:1004E6000000000000000000000000000000000006
:1004F60000000000000000000000000000000000F6
:1005060000000000000000000000000000000000E5
:1005160000000000000000000000000000000000D5
:1005260000000000000000000000000000000000C5
:1005360000000000000000000000000000000000B5
:1005460000000000000000000000000000000000A5
:100556000000000000000000000000000000000095
:100566000000000000000000000000000000000085
:100576000000000000000000000000000000000075
:1005860010041004FF7F10040000FE7F424041204B
:10059600FC0F40084008200820081008080504023F
:1005A6004000400040004000FE1F40104010401038
:1005B600401020102010101010100811040A020418
:1005C600800080008000800080008000FF7F800027
:1005D600800080008000800080008000FC1F0000FA
:1005E6001004100410041004100410041004100465
:1005F600100A280A480A4811041184204220214082
:10060600800080008000FE3F8000880890089004EB
:10061600FF7FC001A00290048C18836080008000D8
:100626000000840F88088808810842082A7018008C
:10063600C81F44108710840804050402840D7070D6
:1006460040004000FF7F20002000F00F100818082F
:10065600F40F12081108F00F10081008100A100401
:10066600000200023F01207FA010A01060113E1181
:100676000211020A020A22041A0A061182204040C6
:1006860040008000FF7F2002280A24122222000058
:10069600FC0F10042002400180006003180C077054
:1006A60040044804480448044804FF7F48044804BA
:1006B60048044804C807080008000800F83F00007E
:1006C6000000F80F88088808F80F88088808F80FCF
:1006D600400130062C1A2362200210021002080282
:1006E6000000000000000000000000000000000004
:1006F6000000000000000C000C00080004000000D0
:100706000000FE3F800080004000FC1F24112411E1
:100716002411241124112411241124110414040871
:10072600F80F08080808F80F08080808F80F00006E
:10073600FF7F80008800881F88009400A200C17F88
:100746000800883F88248824BF2488248824A83F5A
:1007560098208C008B008800884088400A7F04001F
:1007660040008000FE7F0240012010001010100C97
:10077600900370001000102010201020E03F0000B1
:1007860060001E3F0222122222225A2986100000F1
:10079600FC1F84108410FC1F84108410FC1F04109E
:1007A600080208020405840852102F60C81F0400BE
:1007B6000200DF1F4210401058104710C21F4010A1
:1007C6001004FE141024FF7F0004FE049224FE246D
:1007D6009224FE144414FE084448FF5544628241A4
:1007E60040008000FE7F0240012010001010100C17
:1007F600900370001000102010201020E03F000031
:100806000802080204027E3E42214221C220422200
:100816007E2442244220422042207E2042140008A8
:100826008000800080008000800080004001400140
:1008360020022002100410040808041002200140BF
:1008460000000000000000000000000000000000A2
:10085600000000001800240024001800000000001A
:100866000000000000000000000000000000000082
:100876000000000000000000000000000000000072
:100886000000000000000000000000000000000062
:100896000000000000000000000000000000000052
:1008A6000000000000000000000000000000000042
:1008B6000000000000000000000000000000000032
:1008C6000000000000000000000000000000000022
:1008D6000000000000000000000000000000000012
:1008E6000000000000000000000000000000000002
:1008F60000000000000000000000000000000000F2
:1009060000000000000000000000000000000000E1
:1009160000000000000000000000000000000000D1
:1009260000000000000000000000000000000000C1
:1009360000000000000000000000000000000000B1
:1009460000000000000000000000000000000000A1
:100956000000000000000000000000000000000091
:100966002000A43FA4202411240A2404241AA461EC
:10097600200080008000FC1F80008000FF7F0000B8
:10098600080408040804883F3F040804C87F0810C8
:100996001810CC7F0B100811081208100A1404084E
:1009A6000000FC1F8000800080008000FF7F800028
:1009B60040014001200220021004080804100360D0
:1009C6000804081478244404CC7F5204250A280A13
:1009D6001011081184204240000012112222212207
:1009E6000000000000000000000000000000000001
:1009F6000000000000000C000C00080004000000CD
:100A06000808100810040000FC1F80008000800009
:100A1600FF7F800040014001200210040C18036093
:100A26000010803F7E0844088804FE7F4240412033
:100A3600FE1F2000E00F500888040403C20C387023
:100A46000000000000000000000000000000FF7F22
:100A56000000000000000000000000000000000090
:100A66008000880088008800FC3F840082008100A6
:100A76008000FC1F8000800080008000FF7F000057
:100A86000000000000000000000000000000000060
:100A96000000000000000C000C000800040000002C
:100AA6001000D01F101108110811EC7F0C110A114B
:100AB6000911C81F0811080188008800480028008D
:100AC6008020E0213E20202420242024FF253024DD
:100AD6006824A8242425242422202120202820102C
:100AE60008000800C81F08113F0924092405243DF1
:100AF6002421122194208820942062204114200869
:100B06000808080A290A2A0A1A110811BF204C5F88
:100B16001C122A122A1209120811081188144808F0
:100B260000000000000000000000000000000000BF
:100B360000000000000000000000000000000000AF
:100B4600000000000000000000000000000000009F
:100B5600000000000000000000000000000000008F
:100B6600000000000000000000000000000000007F
:100B7600000000000000000000000000000000006F
:100B8600000000000000000000000000000000005F
:100B9600000000000000000000000000000000004F
:100BA600000000000000000000000000000000003F
:100BB600000000000000000000000000000000002F
:100BC600000000000000000000000000000000001F
:100BD600000000000000000000000000000000000F
:100BE60000000000000000000000000000000000FF
:100BF60000000000000000000000000000000000EF
:100C060000000000000000000000000000000000DE
:100C160000000000000000000000000000000000CE
:100C260000020202040204220016E00E8806880A68
:100C3600840A471244122422144204028402000148
:100C46004000400040004000FE1F40104010401091
:100C5600401020102010101010100811040A020471
:100C6600800080008000800080008000FF7F800080
:100C7600800080008000800080008000800080006E
:100C86000000F80F0808080808080808F80F800090
:100C960080008800881F88009400A400C27F01009D
:100CA600000000000000000000000000000000003E
:100CB6000000000000000C000C000800040000000A
:100CC6000000FC0F4000400040004000FE3F2001B5
:100CD600200120011001100108210421023E01001B
:100CE6000000FE7F00080008F808880888088808C1
:100CF60088088808F808880800080008000A000420
:100D0600100410047E3F10047F7F280A441182607D
:100D1600F90F08080808F80F08080808F80F080867
:100D26001009101110110801087DEC030C010A02CC
:100D360009020802080408440848085008600840E8
:100D4600000000000000000000000000000000009D
:100D56000000000000000C000C0008000400000069
:100D660080000001FC7F0401F41F0411FC7F0411C4
:100D7600F41F14012423441522091211496180002D
:100D86001000D07F120412041204923F922492247F
:100D9600922492249224902C8814080404040204B9
:100DA600100A1012F07F0802E83F2C22EC3F2A229C
:100DB600E93F28220810F87F481088108814080890
:100DC60000020202040204220016E00E8806880AC7
:100DD600840A4712441224221442040284020001A7
:100DE60008000800843F240422041F0408040404A5
:100DF60002043F040204000438040704C27F000012
:100E060010041004FF7F1004900440012002900497
:100E16008C18FB6F8000900488088410A0004000A6
:100E260000000000000000000000000000000000BC
:100E360000000000000000000000000000000000AC
:100E4600000000000000000000000000000000009C
:100E5600000000000000000000000000000000008C
:100E6600000000000000000000000000000000007C
:100E7600000000000000000000000000000000006C
:100E8600000000000000000000000000000000005C
:100E9600000000000000000000000000000000004C
:100EA600000000000000000000000000000000003C
:100EB600000000000000000000000000000000002C
:100EC600000000000000000000000000000000001C
:100ED600000000000000000000000000000000000C
:100EE60000000000000000000000000000000000FC
:100EF60000000000000000000000000000000000EC
:100F060000000000000000000000000000000000DB
:100F160000000000000000000000000000000000CB
:100F26008000800080008000FC1F841084108410E4
:100F360084108410FC1F84108000800080008000D4
:100F46000000FE3F02200220FA2F82208220F22794
:100F5600822082228224FA2F02200220FE3F0220D3
:100F6600800080008000FC1F841084108410FC1F09
:100F7600841084108410FC1F845080408040007FC1
:100F860010021004D07F080008008C3F0C000A00F5
:100F9600893F08000800883F88208820883F8820ED
:100FA600000000000000000000000000000000003B
:100FB6000000000000000C000C0008000400000007
:100FC600080008000800F83F080004000400FC1FA1
:100FD600001000100010FF1300100010000A00049B
:100FE60090009000883F4C202A12990A88124822C5
:100FF60028228802080140008A208A480948F00F02
:1010060008050809887FC804BF3F8804883FA804EC
:10101600987F8C00CB3F0811087988404A502420DD
:101026000008001FFC0080008000FC1F800080007C
:101036008000FF7F8000800080008000A0004000CC
:101046002004200420042004FC3F20042004200463
:1010560020042004FE7F000020041008081004204D
:10106600000904090809C83F000900090F09E87FBB
:10107600080908098808880848081400E27F000063
:10108600000000000000000000000000000000005A
:101096000000000000000C000C0008000400000026
:1010A600001FFC008000FE3F800090249F1C90449F
:1010B6009C44D379A00290048C1883608000800041
:1010C6000000FC0F04080408140A240A4409440911
:1010D600840884084409444924521252026001409B
:1010E6000000FF03000200220012000A0006000AA8
:1010F6000012002200040004004800500060004076
:101106000800881F080808043F020801887F28494C
:1011160018490C498B488844484428420A298410B7
:1011260000000000000000000000000000000000B9
:1011360000000000000000000000000000000000A9
:101146000000000000000000000000000000000099
:101156000000000000000000000000000000000089
:101166000000000000000000000000000000000079
:101176000000000000000000000000000000000069
:101186000000000000000000000000000000000059
:101196000000000000000000000000000000000049
:1011A6000000000000000000000000000000000039
:1011B6000000000000000000000000000000000029
:1011C6000000000000000000000000000000000019
:1011D6000000000000000000000000000000000009
:1011E60000000000000000000000000000000000F9
:1011F60000000000000000000000000000000000E9
:1012060000000000000000000000000000000000D8
:1012160000000000000000000000000000000000C8
:10122600000100013F01203FA02092105402280235
:10123600080214052405A208810840102020104049
:1012460000000401C83C4824402440244F2448247C
:101256004824482DC814480408041404E27F0000FA
:1012660008020802F87F04020402E63F262225222D
:10127600E43F04024402840204018402440C3470F4
:101286000000FC1F841084108410FC1F841084103E
:101296008410FC1F841084108410821082140108AC
:1012A6000000E43F08000800C01F40104F10C81F90
:1012B600080048108808E83F08001400E27F000094
:1012C6001020102028204824842402257D2444242C
:1012D600442444245424242404210421F8290010FD
:1012E6001008B8080F0908090808BF0808091C09EA
:1012F6002C080A78CA0F0908080808080808080808
:10130600080408040804C87F3F0408040804A83F2A
:1013160018210C110B12080A0804080A8A116460C5
:101326000000FE3F022002210221FA2F0221822123
:101336004221222112210A2142218220FE3F02203F
:1013460000023E022202120212020A0212021202D5
:1013560022052205220596088A08421022201240FC
:101366000000FE3F10041004100410041004FF7F58
:1013760010041004100410040804080404040204F1
:101386008000880888104400FC3F40002000E01FD1
:10139600501090108808080504020205C01838602D
:1013A6000802080204027E3E42214221C220422255
:1013B6007E2442244220422042207E2042140008FD
:1013C60004007C3E12221022FF222822443E020004
:1013D600F80F08080808F80F08080808F80F0808A2
:1013E600080224224212FF0E800200427E42427C04
:1013F60042007E224212420E7E0242425242227C2B
:101406000001200120011002100208040408421005
:1014160041602000200210040804FC0F08080000A8
:10142600400080008000FF7F0000080808100424A8
:101436001224200240018000400130020C0C03708F
:10144600400040004000FE3F2000900088008400DD
:10145600FC1F80008000FF7F8000800080008000ED
:10146600800000010001FC3F0400040004000400A9
:10147600040004000400040004000200020001004D
:10148600800088008800F81F840082008000FF7FAB
:1014960000000000F80F080808080808F80F0808F8
:1014A6000000FE3F800080008808900890048000BD
:1014B600FF7F800080008000800080008000800028
:1014C600400040002000100408080410FE3F0420DD
:1014D6000000F80F0808080808080808F80F0808A8
:1014E60000000000000000000000000000000000F6
:1014F6000000000000000C000C00080004000000C2
:101506001000101F10117E11101F1811381F5411D2
:101516001211101F8000102112491248E10F00001D
:101526000000FE3F20022002FC1F24122412FC1F92
:101536004000FE3F200410023801C001600E1C105E
:101546000000FE1F000800040002800180008000E9
:10155600800080008000800080008000A0004000A5
:101566000800083F3C242424122A7D115408540AFA
:101576007C3E540954087C7F54085208420861088E
:101586000000FF7F80008000FC1F84108410FC1F79
:1015960084108410FC1F8800500060009803077CAC
:1015A60040004000E00F10041C022001C002300180
:1015B6008E1F401030084C048002800170000E001F
:1015C6001008B8080F0908090808BF0808091C0907
:1015D6002C080A78CA0F0908080808080808080825
:1015E600080408040804C87F3F0408040804A83F48
:1015F60018210C110B12080A0804080A8A116460E3
:10160600800080008000FE3F8220822082204221CE
:101616004222222412280A2802200220022802102E
:1016260040008000FE7F02401124880844112002F9
:1016360010040C18FB6F080808080808F80F0808BB
:101646000000000000000000000000000000000094
:101656000000000000000C000C0008000400000060
:1016660000020202E43F0402C01F0002E77F0400FA
:10167600C41F4410C41F4410D41F4C104414400807
:1016860090009000883F4C202A12990A881248221E
:1016960028228802080140008A208A480948F00F5B
:1016A6000808100810040000FC1F8000800080005D
:1016B600FF7F800040014001200210040C180360E7
:1016C600000104020800E83F0102020202020802C9
:1016D600C83F04020702040204020402F47F000069
:1016E6008810A812A412A20AE97B08240428F62B63
:1016F6000528E429242924152413242914280C4414
:1017060010021004D07F080008008C3F0C000A006D
:10171600893F08000800883F88208820883F882065
:1017260000012001200110021002080404084210E2
:1017360041602000200210040804FC0F0808000085
:10174600800080004001200210040808141413646D
:10175600100410041004280A480A4411822041404B
:101766000000F80F080808080808F80F0000FF7FB7
:1017760010000800F80F0008000800080005000225
:101786000000001180084004C00CC00C00000000DE
:101796000000000000000000000000000000000043
:1017A6000000E43F08000800C01F40104F10C81F8B
:1017B600080048108808E83F08001400E27F00008F
:1017C6001020102028204824842402257D24442427
:1017D600442444245424242404210421F8290010F8
:1017E6001008B8080F0908090808BF0808091C09E5
:1017F6002C080A78CA0F0908080808080808080803
:10180600080408040804C87F3F0408040804A83F25
:1018160018210C110B12080A0804080A8A116460C0
:1018260000009801980110018800440000000000A3
:1018360000000000000000000000000000000000A2
:101846000000000000000000000000000000000092
:101856000000000000000C000C000800040000005E
:1018660000140024FC7F0404F4250424F415141940
:101876001449F25502620141800012211248E14FDB
:1018860080104210E4112411E07D2011E711241389
:101896002415F415841154112C11141140158008C7
:1018A60090009000883F4C202A12990A88124822FC
:1018B60028228802080140008A208A480948F00F39
:1018C6000802080204027E3E42214221C220422230
:1018D6007E2442244220422042207E2042140008D8
:1018E60080008000800080008000FF7F80008000F4
:1018F6004001400120022002100408080410036081
:101906004000400040004000FE1F401040104010C4
:10191600401020102010101010100811040A0204A4
:10192600800080008000FE3F800080008000FC0F69
:10193600080810042002400180006003180C07709C
:10194600080408040804883F3F040804C87F0810F8
:101956001810CC7F0B100811081208100A1404087E
:101966000000080008000800080008000800080039
:101976000800080000000000080008000000000041
:101986000000000000000000000000000000000051
:101996000000000000000000000000000000000041
:1019A6000000000000000000000000000000000031
:1019B6000000000000000000000000000000000021
:1019C6000000000000000000000000000000000011
:1019D6000000000000000000000000000000000001
:06247600012D30012F00D2
:042435004EF515FF4C
:10243900E4FEEF13B39294EFC313FFC2B6D2B60E04
:03244900BE08EFDB
:01244C00226D
:042460007F017E007A
:0A246400EF1F70011E144E70F722E6
:1019E6001223F412233275B2FC7592FFE4F5B1F5B9
:1019F60091438E80E52D64316003021B3475160217
:101A06007517400512E5127002051164C84511707C
:101A160029F511F512052EE52EB4101EE4F52E74E7
:101A2600202531F531E43530F530C3E53194C0E594
:101A36003094014005E4F530F531122460C2B5E476
:101A4600F513F514E514AE137805C333CE33CED8AB
:101A5600F92531FFE5303EFE75F002E510A42FF5BD
:101A660082E5F03EF583E5822426F582E58334009F
:101A7600F583E493FDAC14EC25E02421F8A6057566
:101A8600F002E510A42FF582E5F03EF583E5822409
:101A960027F582E5833400F583E493FFEC25E02403
:101AA60022F8A6070514E51470020513640545130C
:101AB6007092E52EC394085008E4F52C852E2B80F1
:101AC60009752C01E52E24F8F52BC2B7E4F513F5BC
:101AD60014E52C2514FF2422F8E6FEC37408952B82
:101AE600FDEEA805088002C333D8FCFE74212FF84A
:101AF600E6FFAD2BA805088002C313D8FC122435D7
:101B06000514E51470020513C39408E51394004008
:101B1600C0851090D2B7D2B50510E510B41003E415
:101B2600F510E52F64016003021A09022151E52D23
:101B360064326003021C6E7516027517A00512E565
:101B4600127002051164C845117029F511F51205C8
:101B56002EE52EB4101EE4F52E74202531F531E461
:101B66003530F530C3E5319420E53094024005E484
:101B7600F530F531122460C2B5E4F513F514E51419
:101B8600AE137805C333CE33CED8F92531FFE53011
:101B96003EFE75F002E510A42FF582E5F03EF583D2
:101BA600E5822466F582E5833402F583E493FDAC91
:101BB60014EC25E02421F8A60575F002E510A42F03
:101BC600F582E5F03EF583E5822467F582E5833408
:101BD60002F583E493FFEC25E02422F8A60705141A
:101BE600E51470020513640545137092E52EC3943F
:101BF600085008E4F52C852E2B8009752C01E52E5E
:101C060024F8F52BC2B7E4F513F514E52C2514FFDB
:101C16002422F8E6FEC37408952BFDEEA80508807D
:101C260002C333D8FCFE74212FF8E6FFAD2BA805BE
:101C3600088002C313D8FC1224350514E51470027B
:101C46000513C39408E513940040C0851090D2B7DD
:101C5600D2B50510E510B41003E4F510E52F6401C4
:101C66006003021B43022151E52D64336003021D0C
:101C7600A87516037517E00512E5127002051164C2
:101C8600C845117029F511F512052EE52EB4101E62
:101C9600E4F52E74202531F531E43530F530C3E511
:101CA600319460E53094034005E4F530F5311224B3
:101CB60060C2B5E4F513F514E514AE137805C33325
:101CC600CE33CED8F92531FFE5303EFE75F002E57C
:101CD60010A42FF582E5F03EF583E5822406F58211
:101CE600E5833405F583E493FDAC14EC25E024216B
:101CF600F8A60575F002E510A42FF582E5F03EF58D
:101D060083E5822407F582E5833405F583E493FFB2
:101D1600EC25E02422F8A6070514E5147002051345
:101D2600640545137092E52EC394085008E4F52C1B
:101D3600852E2B8009752C01E52E24F8F52BC2B7CC
:101D4600E4F513F514E52C2514FF2422F8E6FEC36A
:101D56007408952BFDEEA805088002C333D8FCFE57
:101D660074212FF8E6FFAD2BA805088002C313D80F
:101D7600FC1224350514E51470020513C39408E516
:101D860013940040C0851090D2B7D2B50510E51067
:101D9600B41003E4F510E52F64016003021C7D0214
:101DA6002151E52D64346003021EE2751602751793
:101DB600C00512E5127002051164C845117029F5B7
:101DC60011F512052EE52EB4101EE4F52E7420250D
:101DD60031F531E43530F530C3E5319440E53094E2
:101DE600024005E4F530F531122460C2B5E4F5137E
:101DF600F514E514AE137805C333CE33CED8F925E2
:101E060031FFE5303EFE75F002E510A42FF582E5C0
:101E1600F03EF583E58224E6F582E5833408F58312
:101E2600E493FDAC14EC25E02421F8A60575F00238
:101E3600E510A42FF582E5F03EF583E58224E7F56B
:101E460082E5833408F583E493FFEC25E02422F849
:101E5600A6070514E5147002051364054513709270
:101E6600E52EC394085008E4F52C852E2B800975C1
:101E76002C01E52E24F8F52BC2B7E4F513F514E58D
:101E86002C2514FF2422F8E6FEC37408952BFDEEDC
:101E9600A805088002C333D8FCFE74212FF8E6FF9C
:101EA600AD2BA805088002C313D8FC1224350514EF
:101EB600E51470020513C39408E513940040C08529
:101EC6001090D2B7D2B50510E510B41003E4F510A2
:101ED600E52F64016003021DB7022151E52D64352B
:101EE600600302201B751603F5170512E512700232
:101EF600051164C845117029F511F512052EE52E58
:101F0600B4101EE4F52E74202531F531E43530F594
:101F160030C3E5319480E53094024005E4F530F5B0
:101F260031122460C2B5E4F513F514E514AE137846
:101F360005C333CE33CED8F92531FFE5303EFE75E5
:101F4600F002E510A42FF582E5F03EF583E5822444
:101F5600A6F582E583340BF583E493FDAC14EC25FA
:101F6600E02421F8A60575F002E510A42FF582E518
:101F7600F03EF583E58224A7F582E583340BF583ED
:101F8600E493FFEC25E02422F8A6070514E5147077
:101F9600020513640545137092E52EC39408500894
:101FA600E4F52C852E2B8009752C01E52E24F8F5F9
:101FB6002BC2B7E4F513F514E52C2514FF2422F8FB
:101FC600E6FEC37408952BFDEEA805088002C33310
:101FD600D8FCFE74212FF8E6FFAD2BA80508800279
:101FE600C313D8FC1224350514E51470020513C377
:101FF6009408E513940040C0851090D2B7D2B50579
:1020060010E510B41003E4F510E52F640160030237
:102016001EF0022151E52D6436600302216075161B
:1020260003F5170512E5127002051164C845117013
:1020360029F511F512052EE52EB4101EE4F52E74C1
:10204600202531F531E43530F530C3E5319480E5AE
:102056003094024005E4F530F531122460C2B5E44F
:10206600F513F514E514AE137805C333CE33CED885
:10207600F92531FFE5303EFE75F002E510A42FF597
:1020860082E5F03EF583E58224A6F582E583340EEB
:10209600F583E493FDAC14EC25E02421F8A6057540
:1020A600F002E510A42FF582E5F03EF583E58224E3
:1020B600A7F582E583340EF583E493FFEC25E0244F
:1020C60022F8A6070514E5147002051364054513E6
:1020D6007092E52EC394085008E4F52C852E2B80CB
:1020E60009752C01E52E24F8F52BC2B7E4F513F596
:1020F60014E52C2514FF2422F8E6FEC37408952B5C
:10210600FDEEA805088002C333D8FCFE74212FF823
:10211600E6FFAD2BA805088002C313D8FC122435B0
:102126000514E51470020513C39408E513940040E2
:10213600C0851090D2B7D2B50510E510B41003E4EF
:10214600F510E52F64016003022029F52FF52CF523
:1021560030F531F52BF52E0219FAE52D64306003C2
:102166000219FA7516087517400512E51270020570
:1021760011649645117029F511F512052EE52EB458
:10218600101EE4F52E74202531F531E43530F53096
:10219600C3E53194C0E53094074005E4F530F531E8
:1021A600122460C2B5E4F513F514E514AE137805F0
:1021B600C333CE33CED8F92531FFE5303EFE75F078
:1021C60002E510A42FF582E5F03EF583E58224A60C
:1021D600F582E5833411F583E493FDAC14EC25E038
:1021E6002421F8A60575F002E510A42FF582E5F086
:1021F6003EF583E58224A7F582E5833411F583E471
:1022060093FFEC25E02422F8A6070514E5147002D6
:102216000513640545137092E52EC394085008E42F
:10222600F52C852E2B8009752C01E52E24F8F52B2F
:10223600C2B7E4F513F514E52C2514FF2422F8E6BD
:10224600FEC37408952BFDEEA805088002C333D89B
:10225600FCFE74212FF8E6FFAD2BA805088002C30B
:1022660013D8FC1224350514E51470020513C39423
:1022760008E513940040C0851090D2B7D2B505107A
:10228600E510B41003E4F510E52F640160030221A4
:102296006FF52FF52CF530F531F52BF52E0219FAE1
:10000600BBB6D3ADCAB9D3C3D6C7C4DCB9ABBDBBC7
:0D001600B3B5B9E3B8E6C5C6A3A10D0A0055
:10233200E4F594F593F592F591F596F595F5B2F5E8
:10234200B1F5B4F5B3F5CAF5C9F5CCF5CBF5E2F5BF
:10235200E1E5A2543FF5A27598DA758E40E4F5895D
:10236200758BE8758DFFD28ED2ACD2AF7BFF7A002F
:05237200790602244D74
:030023000223B8FD
:0D23B800C0E0C0F0C083C082C0D075D00866
:1023C50030981AC298AF99EFC39431400BEFD3946C
:1023D500365005752F018F2DAF2D12246E309904BF
:0423E500C299C200D7
:0B23E900D0D0D082D083D0F0D0E03202
:08246E008F993099FDC29922FB
:10244D0012241CFF600C12246E740129F9E43AFA6F
:03245D0080EE22EC
:03247D00610D00EE
:030003000223775E
:10237700C0E0C0F0C083C082C0D075D000C000C02C
:1023870001C002C003C004C005C006C0077BFF7AB6
:1023970024797D12244DD007D006D005D004D00370
:1023A700D002D001D000D0D0D082D083D0F0D0E0FE
:0123B70032F3
:1023F400E4F594F593F592F591F596F595F5B2F526
:10240400B1F5B4F5B3F5CAF5C9F5CCF5CBF5E2F5FC
:08241400E1D2B2D288D2A82265
:030000000222A633
:0C22A600787FE4F6D8FD7581310222ED4E
:10241C00BB010689828A83E0225002E722BBFE02BE
:09242C00E32289828A83E49322F1
:1022B2000219E6E493A3F8E493A34003F68001F243
:1022C20008DFF48029E493A3F85407240CC8C3332D
:1022D200C4540F4420C8834004F456800146F6DFFC
:1022E200E4800B0102040810204080902476E47EF2
:1022F200019360BCA3FF543F30E509541FFEE493F1
:10230200A360010ECF54C025E060A840B8E493A3B7
:10231200FAE493A3F8E493A3C8C582C8CAC583CAE2
:10232200F0A3C8C582C8CAC583CADFE9DEE780BE9A
:01247C00005F
:00000001FF
